{
  "contractName": "CustomerRole",
  "abi": [
    {
      "inputs": [],
      "stateMutability": "nonpayable",
      "type": "constructor"
    },
    {
      "anonymous": false,
      "inputs": [
        {
          "indexed": true,
          "internalType": "address",
          "name": "account",
          "type": "address"
        }
      ],
      "name": "CustomerAdded",
      "type": "event"
    },
    {
      "anonymous": false,
      "inputs": [
        {
          "indexed": true,
          "internalType": "address",
          "name": "account",
          "type": "address"
        }
      ],
      "name": "CustomerRemoved",
      "type": "event"
    },
    {
      "inputs": [
        {
          "internalType": "address",
          "name": "account",
          "type": "address"
        }
      ],
      "name": "customerPresent",
      "outputs": [
        {
          "internalType": "bool",
          "name": "",
          "type": "bool"
        }
      ],
      "stateMutability": "view",
      "type": "function"
    },
    {
      "inputs": [
        {
          "internalType": "address",
          "name": "account",
          "type": "address"
        }
      ],
      "name": "addNewCustomer",
      "outputs": [],
      "stateMutability": "nonpayable",
      "type": "function"
    },
    {
      "inputs": [
        {
          "internalType": "address",
          "name": "account",
          "type": "address"
        }
      ],
      "name": "renounceExistingCustomer",
      "outputs": [],
      "stateMutability": "nonpayable",
      "type": "function"
    }
  ],
  "bytecode": "0x608060405234801561000f575f80fd5b5061002c61002161003160201b60201c565b61003860201b60201c565b6101c6565b5f33905090565b61004b815f61009160201b90919060201c565b8073ffffffffffffffffffffffffffffffffffffffff167fcd118a02bd36f224f6f1b93812f78d2bbc2c2dc1bc0f60c176e3b4fe09f1483f60405160405180910390a250565b5f73ffffffffffffffffffffffffffffffffffffffff168173ffffffffffffffffffffffffffffffffffffffff16036100c8575f80fd5b6100d8828261013b60201b60201c565b156100e1575f80fd5b6001825f015f8373ffffffffffffffffffffffffffffffffffffffff1673ffffffffffffffffffffffffffffffffffffffff1681526020019081526020015f205f6101000a81548160ff0219169083151502179055505050565b5f8073ffffffffffffffffffffffffffffffffffffffff168273ffffffffffffffffffffffffffffffffffffffff1603610173575f80fd5b825f015f8373ffffffffffffffffffffffffffffffffffffffff1673ffffffffffffffffffffffffffffffffffffffff1681526020019081526020015f205f9054906101000a900460ff16905092915050565b610472806101d35f395ff3fe608060405234801561000f575f80fd5b506004361061003f575f3560e01c806307f93c1314610043578063812ebf8e14610073578063d879df731461008f575b5f80fd5b61005d600480360381019061005891906103de565b6100ab565b60405161006a9190610423565b60405180910390f35b61008d600480360381019061008891906103de565b6100c6565b005b6100a960048036038101906100a491906103de565b6100d2565b005b5f6100bf825f6100f690919063ffffffff16565b9050919050565b6100cf81610181565b50565b6100e26100dd6101da565b6100ab565b6100ea575f80fd5b6100f3816101e1565b50565b5f8073ffffffffffffffffffffffffffffffffffffffff168273ffffffffffffffffffffffffffffffffffffffff160361012e575f80fd5b825f015f8373ffffffffffffffffffffffffffffffffffffffff1673ffffffffffffffffffffffffffffffffffffffff1681526020019081526020015f205f9054906101000a900460ff16905092915050565b610194815f61023a90919063ffffffff16565b8073ffffffffffffffffffffffffffffffffffffffff167fb4c88a9c5cd906354abdd1cc29e4f94c6c4de90754fb80ce51e6a33417bc81b660405160405180910390a250565b5f33905090565b6101f4815f6102dc90919063ffffffff16565b8073ffffffffffffffffffffffffffffffffffffffff167fcd118a02bd36f224f6f1b93812f78d2bbc2c2dc1bc0f60c176e3b4fe09f1483f60405160405180910390a250565b5f73ffffffffffffffffffffffffffffffffffffffff168173ffffffffffffffffffffffffffffffffffffffff1603610271575f80fd5b61027b82826100f6565b610283575f80fd5b5f825f015f8373ffffffffffffffffffffffffffffffffffffffff1673ffffffffffffffffffffffffffffffffffffffff1681526020019081526020015f205f6101000a81548160ff0219169083151502179055505050565b5f73ffffffffffffffffffffffffffffffffffffffff168173ffffffffffffffffffffffffffffffffffffffff1603610313575f80fd5b61031d82826100f6565b15610326575f80fd5b6001825f015f8373ffffffffffffffffffffffffffffffffffffffff1673ffffffffffffffffffffffffffffffffffffffff1681526020019081526020015f205f6101000a81548160ff0219169083151502179055505050565b5f80fd5b5f73ffffffffffffffffffffffffffffffffffffffff82169050919050565b5f6103ad82610384565b9050919050565b6103bd816103a3565b81146103c7575f80fd5b50565b5f813590506103d8816103b4565b92915050565b5f602082840312156103f3576103f2610380565b5b5f610400848285016103ca565b91505092915050565b5f8115159050919050565b61041d81610409565b82525050565b5f6020820190506104365f830184610414565b9291505056fea2646970667358221220929a04cad2ab7e64a9473fcfe4a6e81c975e7aee48c6fde5532170d3b5b6f30e64736f6c63430008150033",
  "immutableReferences": {},
  "source": "pragma solidity >=0.4.22 <0.9.0;\r\n\r\nimport \"./Roles.sol\";\r\nimport \"../utils/Context.sol\";\r\n\r\ncontract CustomerRole is Context {\r\n    \r\n    using Roles for Roles.Role;\r\n    event CustomerAdded(address indexed account);\r\n    event CustomerRemoved(address indexed account);\r\n\r\n    Roles.Role private customer;\r\n\r\n    constructor() public {\r\n        _addNewCustomer(_msgSender());\r\n    }\r\n\r\n    modifier customerExists() {\r\n        require(customerPresent(_msgSender()));\r\n        _;\r\n    }\r\n\r\n    function customerPresent(address account) public view returns (bool) {\r\n        return customer.has(account);\r\n    }\r\n\r\n    function addNewCustomer(address account) public customerExists {\r\n        _addNewCustomer(account);\r\n    }\r\n\r\n    function renounceExistingCustomer(address account) public {\r\n        _removeExistingCustomer(account);\r\n    }\r\n\r\n    function _addNewCustomer(address account) internal {\r\n        customer.add(account);\r\n        emit CustomerAdded(account);\r\n    }\r\n\r\n    function _removeExistingCustomer(address account) internal {\r\n        customer.remove(account);\r\n        emit CustomerRemoved(account);\r\n    }\r\n}\r\n",
  "sourcePath": "/Users/yogeshvijayan/Downloads/ETH-FoodSupplyChain/contracts/accessControl/CustomerRole.sol",
  "compiler": {
    "name": "solc",
    "version": "0.8.21+commit.d9974bed.Emscripten.clang"
  },
  "schemaVersion": "3.4.8",
  "updatedAt": "2023-08-22T07:42:41.217Z",
  "devdoc": {
    "kind": "dev",
    "methods": {},
    "version": 1
  },
  "userdoc": {
    "kind": "user",
    "methods": {},
    "version": 1
  }
}