{
  "contractName": "GrocerRole",
  "abi": [
    {
      "inputs": [],
      "stateMutability": "nonpayable",
      "type": "constructor"
    },
    {
      "anonymous": false,
      "inputs": [
        {
          "indexed": true,
          "internalType": "address",
          "name": "account",
          "type": "address"
        }
      ],
      "name": "GrocerAdded",
      "type": "event"
    },
    {
      "anonymous": false,
      "inputs": [
        {
          "indexed": true,
          "internalType": "address",
          "name": "account",
          "type": "address"
        }
      ],
      "name": "GrocerRemoved",
      "type": "event"
    },
    {
      "inputs": [
        {
          "internalType": "address",
          "name": "account",
          "type": "address"
        }
      ],
      "name": "grocerPresent",
      "outputs": [
        {
          "internalType": "bool",
          "name": "",
          "type": "bool"
        }
      ],
      "stateMutability": "view",
      "type": "function"
    },
    {
      "inputs": [
        {
          "internalType": "address",
          "name": "account",
          "type": "address"
        }
      ],
      "name": "addNewGrocer",
      "outputs": [],
      "stateMutability": "nonpayable",
      "type": "function"
    },
    {
      "inputs": [],
      "name": "renounceExistingGrocer",
      "outputs": [],
      "stateMutability": "nonpayable",
      "type": "function"
    }
  ],
  "bytecode": "0x608060405234801561000f575f80fd5b5061002c61002161003160201b60201c565b61003860201b60201c565b6101c6565b5f33905090565b61004b815f61009160201b90919060201c565b8073ffffffffffffffffffffffffffffffffffffffff167f69b08bfa7665151fbe9a5ea73b256df36b75fa729ede699de2539e9366b70ca060405160405180910390a250565b5f73ffffffffffffffffffffffffffffffffffffffff168173ffffffffffffffffffffffffffffffffffffffff16036100c8575f80fd5b6100d8828261013b60201b60201c565b156100e1575f80fd5b6001825f015f8373ffffffffffffffffffffffffffffffffffffffff1673ffffffffffffffffffffffffffffffffffffffff1681526020019081526020015f205f6101000a81548160ff0219169083151502179055505050565b5f8073ffffffffffffffffffffffffffffffffffffffff168273ffffffffffffffffffffffffffffffffffffffff1603610173575f80fd5b825f015f8373ffffffffffffffffffffffffffffffffffffffff1673ffffffffffffffffffffffffffffffffffffffff1681526020019081526020015f205f9054906101000a900460ff16905092915050565b610466806101d35f395ff3fe608060405234801561000f575f80fd5b506004361061003f575f3560e01c80633d9e9f241461004357806391603de41461005f578063f16aaa301461008f575b5f80fd5b61005d600480360381019061005891906103d2565b610099565b005b610079600480360381019061007491906103d2565b6100bd565b6040516100869190610417565b60405180910390f35b6100976100d8565b005b6100a96100a46100ea565b6100bd565b6100b1575f80fd5b6100ba816100f1565b50565b5f6100d1825f61014a90919063ffffffff16565b9050919050565b6100e86100e36100ea565b6101d5565b565b5f33905090565b610104815f61022e90919063ffffffff16565b8073ffffffffffffffffffffffffffffffffffffffff167f69b08bfa7665151fbe9a5ea73b256df36b75fa729ede699de2539e9366b70ca060405160405180910390a250565b5f8073ffffffffffffffffffffffffffffffffffffffff168273ffffffffffffffffffffffffffffffffffffffff1603610182575f80fd5b825f015f8373ffffffffffffffffffffffffffffffffffffffff1673ffffffffffffffffffffffffffffffffffffffff1681526020019081526020015f205f9054906101000a900460ff16905092915050565b6101e8815f6102d290919063ffffffff16565b8073ffffffffffffffffffffffffffffffffffffffff167f0ead35fea341a78f80aa3d8f3af53a7d5a2eea270c1db57f05de233b08f8a6cc60405160405180910390a250565b5f73ffffffffffffffffffffffffffffffffffffffff168173ffffffffffffffffffffffffffffffffffffffff1603610265575f80fd5b61026f828261014a565b15610278575f80fd5b6001825f015f8373ffffffffffffffffffffffffffffffffffffffff1673ffffffffffffffffffffffffffffffffffffffff1681526020019081526020015f205f6101000a81548160ff0219169083151502179055505050565b5f73ffffffffffffffffffffffffffffffffffffffff168173ffffffffffffffffffffffffffffffffffffffff1603610309575f80fd5b610313828261014a565b61031b575f80fd5b5f825f015f8373ffffffffffffffffffffffffffffffffffffffff1673ffffffffffffffffffffffffffffffffffffffff1681526020019081526020015f205f6101000a81548160ff0219169083151502179055505050565b5f80fd5b5f73ffffffffffffffffffffffffffffffffffffffff82169050919050565b5f6103a182610378565b9050919050565b6103b181610397565b81146103bb575f80fd5b50565b5f813590506103cc816103a8565b92915050565b5f602082840312156103e7576103e6610374565b5b5f6103f4848285016103be565b91505092915050565b5f8115159050919050565b610411816103fd565b82525050565b5f60208201905061042a5f830184610408565b9291505056fea2646970667358221220dfa8db9ed39421ebaf082cbe699ef539cca0e72e2aa1c53a4f879ab60111f2df64736f6c63430008150033",
  "immutableReferences": {},
  "source": "pragma solidity >=0.4.22 <0.9.0;\r\n\r\nimport \"./Roles.sol\";\r\nimport \"../utils/Context.sol\";\r\n\r\ncontract GrocerRole is Context {\r\n    using Roles for Roles.Role;\r\n\r\n    event GrocerAdded(address indexed account);\r\n    event GrocerRemoved(address indexed account);\r\n\r\n    Roles.Role private Grocers;\r\n\r\n    constructor() public {\r\n        _addNewGrocer(_msgSender());\r\n    }\r\n\r\n    modifier grocerExists() {\r\n        require(grocerPresent(_msgSender()));\r\n        _;\r\n    }\r\n\r\n    function grocerPresent(address account) public view returns (bool) {\r\n        return Grocers.has(account);\r\n    }\r\n\r\n    function addNewGrocer(address account) public grocerExists {\r\n        _addNewGrocer(account);\r\n    }\r\n\r\n    function renounceExistingGrocer() public {\r\n        _removeExistingGrocer(_msgSender());\r\n    }\r\n\r\n    function _addNewGrocer(address account) internal {\r\n        Grocers.add(account);\r\n        emit GrocerAdded(account);\r\n    }\r\n\r\n    function _removeExistingGrocer(address account) internal {\r\n        Grocers.remove(account);\r\n        emit GrocerRemoved(account);\r\n    }\r\n}\r\n",
  "sourcePath": "/Users/yogeshvijayan/Downloads/ETH-FoodSupplyChain/contracts/accessControl/GrocerRole.sol",
  "compiler": {
    "name": "solc",
    "version": "0.8.21+commit.d9974bed.Emscripten.clang"
  },
  "schemaVersion": "3.4.8",
  "updatedAt": "2023-08-22T07:42:41.219Z",
  "devdoc": {
    "kind": "dev",
    "methods": {},
    "version": 1
  },
  "userdoc": {
    "kind": "user",
    "methods": {},
    "version": 1
  }
}