{
  "contractName": "RetailerRole",
  "abi": [
    {
      "inputs": [],
      "stateMutability": "nonpayable",
      "type": "constructor"
    },
    {
      "anonymous": false,
      "inputs": [
        {
          "indexed": true,
          "internalType": "address",
          "name": "account",
          "type": "address"
        }
      ],
      "name": "RetailerAdded",
      "type": "event"
    },
    {
      "anonymous": false,
      "inputs": [
        {
          "indexed": true,
          "internalType": "address",
          "name": "account",
          "type": "address"
        }
      ],
      "name": "RetailerRemoved",
      "type": "event"
    },
    {
      "inputs": [
        {
          "internalType": "address",
          "name": "account",
          "type": "address"
        }
      ],
      "name": "retailerPresent",
      "outputs": [
        {
          "internalType": "bool",
          "name": "",
          "type": "bool"
        }
      ],
      "stateMutability": "view",
      "type": "function"
    },
    {
      "inputs": [
        {
          "internalType": "address",
          "name": "account",
          "type": "address"
        }
      ],
      "name": "addNewRetailer",
      "outputs": [],
      "stateMutability": "nonpayable",
      "type": "function"
    },
    {
      "inputs": [],
      "name": "renounceExistingRetailer",
      "outputs": [],
      "stateMutability": "nonpayable",
      "type": "function"
    }
  ],
  "bytecode": "0x608060405234801561000f575f80fd5b5061002c61002161003160201b60201c565b61003860201b60201c565b6101c6565b5f33905090565b61004b815f61009160201b90919060201c565b8073ffffffffffffffffffffffffffffffffffffffff167f71ae26cad02663e3d92efd6ec56031a80d74a20c0ab4183faa8bf262261c9baa60405160405180910390a250565b5f73ffffffffffffffffffffffffffffffffffffffff168173ffffffffffffffffffffffffffffffffffffffff16036100c8575f80fd5b6100d8828261013b60201b60201c565b156100e1575f80fd5b6001825f015f8373ffffffffffffffffffffffffffffffffffffffff1673ffffffffffffffffffffffffffffffffffffffff1681526020019081526020015f205f6101000a81548160ff0219169083151502179055505050565b5f8073ffffffffffffffffffffffffffffffffffffffff168273ffffffffffffffffffffffffffffffffffffffff1603610173575f80fd5b825f015f8373ffffffffffffffffffffffffffffffffffffffff1673ffffffffffffffffffffffffffffffffffffffff1681526020019081526020015f205f9054906101000a900460ff16905092915050565b610466806101d35f395ff3fe608060405234801561000f575f80fd5b506004361061003f575f3560e01c806329c5cdd3146100435780636caa3c491461005f5780639dae828b14610069575b5f80fd5b61005d600480360381019061005891906103d2565b610099565b005b6100676100bd565b005b610083600480360381019061007e91906103d2565b6100cf565b6040516100909190610417565b60405180910390f35b6100a96100a46100ea565b6100cf565b6100b1575f80fd5b6100ba816100f1565b50565b6100cd6100c86100ea565b61014a565b565b5f6100e3825f6101a390919063ffffffff16565b9050919050565b5f33905090565b610104815f61022e90919063ffffffff16565b8073ffffffffffffffffffffffffffffffffffffffff167f71ae26cad02663e3d92efd6ec56031a80d74a20c0ab4183faa8bf262261c9baa60405160405180910390a250565b61015d815f6102d290919063ffffffff16565b8073ffffffffffffffffffffffffffffffffffffffff167fdb7176e79cffef81cb01767dd0447a0b24bb72ca9778d4b245581086b2a7e6db60405160405180910390a250565b5f8073ffffffffffffffffffffffffffffffffffffffff168273ffffffffffffffffffffffffffffffffffffffff16036101db575f80fd5b825f015f8373ffffffffffffffffffffffffffffffffffffffff1673ffffffffffffffffffffffffffffffffffffffff1681526020019081526020015f205f9054906101000a900460ff16905092915050565b5f73ffffffffffffffffffffffffffffffffffffffff168173ffffffffffffffffffffffffffffffffffffffff1603610265575f80fd5b61026f82826101a3565b15610278575f80fd5b6001825f015f8373ffffffffffffffffffffffffffffffffffffffff1673ffffffffffffffffffffffffffffffffffffffff1681526020019081526020015f205f6101000a81548160ff0219169083151502179055505050565b5f73ffffffffffffffffffffffffffffffffffffffff168173ffffffffffffffffffffffffffffffffffffffff1603610309575f80fd5b61031382826101a3565b61031b575f80fd5b5f825f015f8373ffffffffffffffffffffffffffffffffffffffff1673ffffffffffffffffffffffffffffffffffffffff1681526020019081526020015f205f6101000a81548160ff0219169083151502179055505050565b5f80fd5b5f73ffffffffffffffffffffffffffffffffffffffff82169050919050565b5f6103a182610378565b9050919050565b6103b181610397565b81146103bb575f80fd5b50565b5f813590506103cc816103a8565b92915050565b5f602082840312156103e7576103e6610374565b5b5f6103f4848285016103be565b91505092915050565b5f8115159050919050565b610411816103fd565b82525050565b5f60208201905061042a5f830184610408565b9291505056fea2646970667358221220668fbb150b756ab35fadad9515359e86adb8bac5ddf2d3e6f68c5a26ef45924664736f6c63430008150033",
  "immutableReferences": {},
  "source": "pragma solidity >=0.4.22 <0.9.0;\r\n\r\nimport \"./Roles.sol\";\r\nimport \"../utils/Context.sol\";\r\n\r\ncontract RetailerRole is Context {\r\n    using Roles for Roles.Role;\r\n\r\n    event RetailerAdded(address indexed account);\r\n    event RetailerRemoved(address indexed account);\r\n\r\n    Roles.Role private Retailers;\r\n\r\n\r\n    constructor() public {\r\n        _addNewRetailer(_msgSender());\r\n    }\r\n\r\n\r\n    modifier retailerExists() {\r\n        require(retailerPresent(_msgSender()));\r\n        _;\r\n    }\r\n\r\n\r\n    function retailerPresent(address account) public view returns (bool) {\r\n        return Retailers.has(account);\r\n    }\r\n\r\n\r\n    function addNewRetailer(address account) public retailerExists {\r\n        _addNewRetailer(account);\r\n    }\r\n\r\n\r\n    function renounceExistingRetailer() public {\r\n        _removeExistingRetailer(_msgSender());\r\n    }\r\n\r\n\r\n    function _addNewRetailer(address account) internal {\r\n       Retailers.add(account);\r\n        emit RetailerAdded(account);\r\n    }\r\n\r\n    function _removeExistingRetailer(address account) internal {\r\n       Retailers.remove(account);\r\n        emit RetailerRemoved(account);\r\n    }\r\n}\r\n",
  "sourcePath": "/Users/yogeshvijayan/Downloads/ETH-FoodSupplyChain/contracts/accessControl/RetailerRole.sol",
  "compiler": {
    "name": "solc",
    "version": "0.8.21+commit.d9974bed.Emscripten.clang"
  },
  "schemaVersion": "3.4.8",
  "updatedAt": "2023-08-22T07:42:41.220Z",
  "devdoc": {
    "kind": "dev",
    "methods": {},
    "version": 1
  },
  "userdoc": {
    "kind": "user",
    "methods": {},
    "version": 1
  }
}