{
  "contractName": "SupplyChain",
  "abi": [
    {
      "inputs": [],
      "stateMutability": "payable",
      "type": "constructor"
    },
    {
      "anonymous": false,
      "inputs": [
        {
          "indexed": true,
          "internalType": "address",
          "name": "account",
          "type": "address"
        }
      ],
      "name": "CustomerAdded",
      "type": "event"
    },
    {
      "anonymous": false,
      "inputs": [
        {
          "indexed": true,
          "internalType": "address",
          "name": "account",
          "type": "address"
        }
      ],
      "name": "CustomerRemoved",
      "type": "event"
    },
    {
      "anonymous": false,
      "inputs": [
        {
          "indexed": true,
          "internalType": "address",
          "name": "account",
          "type": "address"
        }
      ],
      "name": "FarmerAdded",
      "type": "event"
    },
    {
      "anonymous": false,
      "inputs": [
        {
          "indexed": true,
          "internalType": "address",
          "name": "account",
          "type": "address"
        }
      ],
      "name": "FarmerRemoved",
      "type": "event"
    },
    {
      "anonymous": false,
      "inputs": [
        {
          "indexed": false,
          "internalType": "uint256",
          "name": "productID",
          "type": "uint256"
        }
      ],
      "name": "ForSaleByFarmer",
      "type": "event"
    },
    {
      "anonymous": false,
      "inputs": [
        {
          "indexed": false,
          "internalType": "uint256",
          "name": "productID",
          "type": "uint256"
        }
      ],
      "name": "ForSaleByGrocer",
      "type": "event"
    },
    {
      "anonymous": false,
      "inputs": [
        {
          "indexed": false,
          "internalType": "uint256",
          "name": "productID",
          "type": "uint256"
        }
      ],
      "name": "ForSaleByRetailer",
      "type": "event"
    },
    {
      "anonymous": false,
      "inputs": [
        {
          "indexed": true,
          "internalType": "address",
          "name": "account",
          "type": "address"
        }
      ],
      "name": "GrocerAdded",
      "type": "event"
    },
    {
      "anonymous": false,
      "inputs": [
        {
          "indexed": true,
          "internalType": "address",
          "name": "account",
          "type": "address"
        }
      ],
      "name": "GrocerRemoved",
      "type": "event"
    },
    {
      "anonymous": false,
      "inputs": [
        {
          "indexed": true,
          "internalType": "address",
          "name": "previousOwner",
          "type": "address"
        },
        {
          "indexed": true,
          "internalType": "address",
          "name": "newOwner",
          "type": "address"
        }
      ],
      "name": "OwnershipTransferred",
      "type": "event"
    },
    {
      "anonymous": false,
      "inputs": [
        {
          "indexed": false,
          "internalType": "uint256",
          "name": "productID",
          "type": "uint256"
        }
      ],
      "name": "PackagedByRetailer",
      "type": "event"
    },
    {
      "anonymous": false,
      "inputs": [
        {
          "indexed": false,
          "internalType": "uint256",
          "name": "productID",
          "type": "uint256"
        }
      ],
      "name": "ProcessedByRetailer",
      "type": "event"
    },
    {
      "anonymous": false,
      "inputs": [
        {
          "indexed": false,
          "internalType": "uint256",
          "name": "productID",
          "type": "uint256"
        }
      ],
      "name": "ProduceByFarmer",
      "type": "event"
    },
    {
      "anonymous": false,
      "inputs": [
        {
          "indexed": false,
          "internalType": "uint256",
          "name": "productID",
          "type": "uint256"
        }
      ],
      "name": "PurchasedByCustomer",
      "type": "event"
    },
    {
      "anonymous": false,
      "inputs": [
        {
          "indexed": false,
          "internalType": "uint256",
          "name": "productID",
          "type": "uint256"
        }
      ],
      "name": "PurchasedByGrocer",
      "type": "event"
    },
    {
      "anonymous": false,
      "inputs": [
        {
          "indexed": false,
          "internalType": "uint256",
          "name": "productID",
          "type": "uint256"
        }
      ],
      "name": "PurchasedByRetailer",
      "type": "event"
    },
    {
      "anonymous": false,
      "inputs": [
        {
          "indexed": false,
          "internalType": "uint256",
          "name": "productID",
          "type": "uint256"
        }
      ],
      "name": "ReceivedByGrocer",
      "type": "event"
    },
    {
      "anonymous": false,
      "inputs": [
        {
          "indexed": false,
          "internalType": "uint256",
          "name": "productID",
          "type": "uint256"
        }
      ],
      "name": "ReceivedByRetailer",
      "type": "event"
    },
    {
      "anonymous": false,
      "inputs": [
        {
          "indexed": true,
          "internalType": "address",
          "name": "account",
          "type": "address"
        }
      ],
      "name": "RetailerAdded",
      "type": "event"
    },
    {
      "anonymous": false,
      "inputs": [
        {
          "indexed": true,
          "internalType": "address",
          "name": "account",
          "type": "address"
        }
      ],
      "name": "RetailerRemoved",
      "type": "event"
    },
    {
      "anonymous": false,
      "inputs": [
        {
          "indexed": false,
          "internalType": "uint256",
          "name": "productID",
          "type": "uint256"
        }
      ],
      "name": "ShippedByFarmer",
      "type": "event"
    },
    {
      "anonymous": false,
      "inputs": [
        {
          "indexed": false,
          "internalType": "uint256",
          "name": "productID",
          "type": "uint256"
        }
      ],
      "name": "ShippedByRetailer",
      "type": "event"
    },
    {
      "inputs": [
        {
          "internalType": "address",
          "name": "account",
          "type": "address"
        }
      ],
      "name": "addNewCustomer",
      "outputs": [],
      "stateMutability": "nonpayable",
      "type": "function"
    },
    {
      "inputs": [
        {
          "internalType": "address",
          "name": "account",
          "type": "address"
        }
      ],
      "name": "addNewFarmer",
      "outputs": [],
      "stateMutability": "nonpayable",
      "type": "function"
    },
    {
      "inputs": [
        {
          "internalType": "address",
          "name": "account",
          "type": "address"
        }
      ],
      "name": "addNewGrocer",
      "outputs": [],
      "stateMutability": "nonpayable",
      "type": "function"
    },
    {
      "inputs": [
        {
          "internalType": "address",
          "name": "account",
          "type": "address"
        }
      ],
      "name": "addNewRetailer",
      "outputs": [],
      "stateMutability": "nonpayable",
      "type": "function"
    },
    {
      "inputs": [
        {
          "internalType": "address",
          "name": "account",
          "type": "address"
        }
      ],
      "name": "customerPresent",
      "outputs": [
        {
          "internalType": "bool",
          "name": "",
          "type": "bool"
        }
      ],
      "stateMutability": "view",
      "type": "function"
    },
    {
      "inputs": [
        {
          "internalType": "address",
          "name": "account",
          "type": "address"
        }
      ],
      "name": "farmerPresent",
      "outputs": [
        {
          "internalType": "bool",
          "name": "",
          "type": "bool"
        }
      ],
      "stateMutability": "view",
      "type": "function"
    },
    {
      "inputs": [
        {
          "internalType": "address",
          "name": "account",
          "type": "address"
        }
      ],
      "name": "grocerPresent",
      "outputs": [
        {
          "internalType": "bool",
          "name": "",
          "type": "bool"
        }
      ],
      "stateMutability": "view",
      "type": "function"
    },
    {
      "inputs": [],
      "name": "isOwner",
      "outputs": [
        {
          "internalType": "address",
          "name": "",
          "type": "address"
        }
      ],
      "stateMutability": "view",
      "type": "function"
    },
    {
      "inputs": [],
      "name": "ownerLookup",
      "outputs": [
        {
          "internalType": "address",
          "name": "",
          "type": "address"
        }
      ],
      "stateMutability": "view",
      "type": "function"
    },
    {
      "inputs": [
        {
          "internalType": "address",
          "name": "account",
          "type": "address"
        }
      ],
      "name": "renounceExistingCustomer",
      "outputs": [],
      "stateMutability": "nonpayable",
      "type": "function"
    },
    {
      "inputs": [],
      "name": "renounceExistingFarmer",
      "outputs": [],
      "stateMutability": "nonpayable",
      "type": "function"
    },
    {
      "inputs": [],
      "name": "renounceExistingGrocer",
      "outputs": [],
      "stateMutability": "nonpayable",
      "type": "function"
    },
    {
      "inputs": [],
      "name": "renounceExistingRetailer",
      "outputs": [],
      "stateMutability": "nonpayable",
      "type": "function"
    },
    {
      "inputs": [],
      "name": "renounceOwnership",
      "outputs": [],
      "stateMutability": "nonpayable",
      "type": "function"
    },
    {
      "inputs": [
        {
          "internalType": "address",
          "name": "account",
          "type": "address"
        }
      ],
      "name": "retailerPresent",
      "outputs": [
        {
          "internalType": "bool",
          "name": "",
          "type": "bool"
        }
      ],
      "stateMutability": "view",
      "type": "function"
    },
    {
      "inputs": [
        {
          "internalType": "address",
          "name": "newOwner",
          "type": "address"
        }
      ],
      "name": "transferOwnership",
      "outputs": [],
      "stateMutability": "nonpayable",
      "type": "function"
    },
    {
      "inputs": [],
      "name": "kill",
      "outputs": [],
      "stateMutability": "nonpayable",
      "type": "function"
    },
    {
      "inputs": [
        {
          "internalType": "uint256",
          "name": "_productID",
          "type": "uint256"
        },
        {
          "internalType": "string",
          "name": "_farmName",
          "type": "string"
        },
        {
          "internalType": "string",
          "name": "_farmInformation",
          "type": "string"
        },
        {
          "internalType": "uint256",
          "name": "_price",
          "type": "uint256"
        }
      ],
      "name": "produceItemByFarmer",
      "outputs": [],
      "stateMutability": "nonpayable",
      "type": "function"
    },
    {
      "inputs": [
        {
          "internalType": "uint256",
          "name": "_productID",
          "type": "uint256"
        },
        {
          "internalType": "uint256",
          "name": "_price",
          "type": "uint256"
        }
      ],
      "name": "farmerSellsItem",
      "outputs": [],
      "stateMutability": "nonpayable",
      "type": "function"
    },
    {
      "inputs": [
        {
          "internalType": "uint256",
          "name": "_productID",
          "type": "uint256"
        }
      ],
      "name": "retailerBuysItem",
      "outputs": [],
      "stateMutability": "payable",
      "type": "function"
    },
    {
      "inputs": [
        {
          "internalType": "uint256",
          "name": "_productID",
          "type": "uint256"
        }
      ],
      "name": "farmerShipsProduct",
      "outputs": [],
      "stateMutability": "payable",
      "type": "function"
    },
    {
      "inputs": [
        {
          "internalType": "uint256",
          "name": "_productID",
          "type": "uint256"
        }
      ],
      "name": "retailerReceivesProduct",
      "outputs": [],
      "stateMutability": "nonpayable",
      "type": "function"
    },
    {
      "inputs": [
        {
          "internalType": "uint256",
          "name": "_productID",
          "type": "uint256"
        }
      ],
      "name": "retailerPackagesProduct",
      "outputs": [],
      "stateMutability": "nonpayable",
      "type": "function"
    },
    {
      "inputs": [
        {
          "internalType": "uint256",
          "name": "_productID",
          "type": "uint256"
        },
        {
          "internalType": "uint256",
          "name": "_price",
          "type": "uint256"
        }
      ],
      "name": "retailerSellsProduct",
      "outputs": [],
      "stateMutability": "nonpayable",
      "type": "function"
    },
    {
      "inputs": [
        {
          "internalType": "uint256",
          "name": "_productID",
          "type": "uint256"
        }
      ],
      "name": "productPurchasedByGrocer",
      "outputs": [],
      "stateMutability": "payable",
      "type": "function"
    },
    {
      "inputs": [
        {
          "internalType": "uint256",
          "name": "_productID",
          "type": "uint256"
        }
      ],
      "name": "itemShippedByRetailer",
      "outputs": [],
      "stateMutability": "nonpayable",
      "type": "function"
    },
    {
      "inputs": [
        {
          "internalType": "uint256",
          "name": "_productID",
          "type": "uint256"
        }
      ],
      "name": "receivedItemByGrocer",
      "outputs": [],
      "stateMutability": "nonpayable",
      "type": "function"
    },
    {
      "inputs": [
        {
          "internalType": "uint256",
          "name": "_productID",
          "type": "uint256"
        },
        {
          "internalType": "uint256",
          "name": "_price",
          "type": "uint256"
        }
      ],
      "name": "sellItemByGrocer",
      "outputs": [],
      "stateMutability": "nonpayable",
      "type": "function"
    },
    {
      "inputs": [
        {
          "internalType": "uint256",
          "name": "_productID",
          "type": "uint256"
        }
      ],
      "name": "customerBuysItem",
      "outputs": [],
      "stateMutability": "payable",
      "type": "function"
    },
    {
      "inputs": [
        {
          "internalType": "uint256",
          "name": "_productID",
          "type": "uint256"
        }
      ],
      "name": "fetchItemBuffer1",
      "outputs": [
        {
          "internalType": "uint256",
          "name": "itemstockUnit",
          "type": "uint256"
        },
        {
          "internalType": "uint256",
          "name": "itemproductID",
          "type": "uint256"
        },
        {
          "internalType": "address",
          "name": "ownerID",
          "type": "address"
        },
        {
          "internalType": "address",
          "name": "farmerID",
          "type": "address"
        },
        {
          "internalType": "string",
          "name": "farmName",
          "type": "string"
        },
        {
          "internalType": "string",
          "name": "farmInformation",
          "type": "string"
        },
        {
          "internalType": "uint256",
          "name": "productDate",
          "type": "uint256"
        }
      ],
      "stateMutability": "view",
      "type": "function"
    },
    {
      "inputs": [
        {
          "internalType": "uint256",
          "name": "_productID",
          "type": "uint256"
        }
      ],
      "name": "fetchItemBuffer2",
      "outputs": [
        {
          "internalType": "uint256",
          "name": "itemstockUnit",
          "type": "uint256"
        },
        {
          "internalType": "uint256",
          "name": "itemproductID",
          "type": "uint256"
        },
        {
          "internalType": "uint256",
          "name": "productID",
          "type": "uint256"
        },
        {
          "internalType": "string",
          "name": "productNotes",
          "type": "string"
        },
        {
          "internalType": "uint256",
          "name": "productPrice",
          "type": "uint256"
        },
        {
          "internalType": "uint256",
          "name": "productDate",
          "type": "uint256"
        },
        {
          "internalType": "enum SupplyChain.State",
          "name": "itemState",
          "type": "uint8"
        },
        {
          "internalType": "address",
          "name": "RetailerID",
          "type": "address"
        },
        {
          "internalType": "address",
          "name": "retailerID",
          "type": "address"
        },
        {
          "internalType": "address",
          "name": "consumerID",
          "type": "address"
        }
      ],
      "stateMutability": "view",
      "type": "function"
    },
    {
      "inputs": [
        {
          "internalType": "uint256",
          "name": "_productID",
          "type": "uint256"
        }
      ],
      "name": "fetchitemHistory",
      "outputs": [
        {
          "internalType": "uint256",
          "name": "blockfarmerToRetailer",
          "type": "uint256"
        },
        {
          "internalType": "uint256",
          "name": "blockRetailerToRetailer",
          "type": "uint256"
        },
        {
          "internalType": "uint256",
          "name": "blockRetailerToConsumer",
          "type": "uint256"
        }
      ],
      "stateMutability": "view",
      "type": "function"
    }
  ],
  "bytecode": "0x608060405262000024620000186200010960201b60201c565b6200011060201b60201c565b62000044620000386200010960201b60201c565b620001d160201b60201c565b62000064620000586200010960201b60201c565b6200022d60201b60201c565b62000084620000786200010960201b60201c565b6200028960201b60201c565b620000a4620000986200010960201b60201c565b620002e560201b60201c565b620000b46200010960201b60201c565b60065f6101000a81548173ffffffffffffffffffffffffffffffffffffffff021916908373ffffffffffffffffffffffffffffffffffffffff160217905550600160078190555060016005819055506200047b565b5f33905090565b5f805f9054906101000a900473ffffffffffffffffffffffffffffffffffffffff169050815f806101000a81548173ffffffffffffffffffffffffffffffffffffffff021916908373ffffffffffffffffffffffffffffffffffffffff1602179055508173ffffffffffffffffffffffffffffffffffffffff168173ffffffffffffffffffffffffffffffffffffffff167f8be0079c531659141344cd1fd0a4f28419497f9722a3daafe3b4186f6b6457e060405160405180910390a35050565b620001e78160016200034160201b90919060201c565b8073ffffffffffffffffffffffffffffffffffffffff167f2e0ded4123377a3c2bc9a26f1717655a129e2f20752924d42e730ec89c83dbd060405160405180910390a250565b620002438160026200034160201b90919060201c565b8073ffffffffffffffffffffffffffffffffffffffff167f71ae26cad02663e3d92efd6ec56031a80d74a20c0ab4183faa8bf262261c9baa60405160405180910390a250565b6200029f8160036200034160201b90919060201c565b8073ffffffffffffffffffffffffffffffffffffffff167f69b08bfa7665151fbe9a5ea73b256df36b75fa729ede699de2539e9366b70ca060405160405180910390a250565b620002fb8160046200034160201b90919060201c565b8073ffffffffffffffffffffffffffffffffffffffff167fcd118a02bd36f224f6f1b93812f78d2bbc2c2dc1bc0f60c176e3b4fe09f1483f60405160405180910390a250565b5f73ffffffffffffffffffffffffffffffffffffffff168173ffffffffffffffffffffffffffffffffffffffff160362000379575f80fd5b6200038b8282620003ef60201b60201c565b1562000395575f80fd5b6001825f015f8373ffffffffffffffffffffffffffffffffffffffff1673ffffffffffffffffffffffffffffffffffffffff1681526020019081526020015f205f6101000a81548160ff0219169083151502179055505050565b5f8073ffffffffffffffffffffffffffffffffffffffff168273ffffffffffffffffffffffffffffffffffffffff160362000428575f80fd5b825f015f8373ffffffffffffffffffffffffffffffffffffffff1673ffffffffffffffffffffffffffffffffffffffff1681526020019081526020015f205f9054906101000a900460ff16905092915050565b613a3880620004895f395ff3fe6080604052600436106101e2575f3560e01c80638c32d0e811610101578063b8be3cd311610094578063e02e64ea11610063578063e02e64ea1461066d578063ef8fb3d114610697578063f16aaa30146106bf578063f2fde38b146106d5576101e2565b8063b8be3cd3146105c5578063cb13fcff146105e1578063d879df7314610609578063dadea69c14610631576101e2565b80639dae828b116100d05780639dae828b146105035780639e7aa9411461053f5780639eb1e17f1461055b578063a1bfe13914610583576101e2565b80638c32d0e8146104595780638f32d59b1461048157806391603de4146104ab578063978840a6146104e7576101e2565b80634001c6c2116101795780636b89a016116101485780636b89a016146103e95780636caa3c4914610405578063715018a61461041b578063812ebf8e14610431576101e2565b80634001c6c21461035b57806341c0e1b514610383578063494d35b1146103995780634a42e8ed146103c1576101e2565b806329c5cdd3116101b557806329c5cdd31461029e578063307bd5f3146102c65780633cccde111461030b5780633d9e9f2414610333576101e2565b806307f93c13146101e65780630ecce488146102225780631154501c1461024a5780631ca1406514610288575b5f80fd5b3480156101f1575f80fd5b5061020c60048036038101906102079190613105565b6106fd565b604051610219919061314a565b60405180910390f35b34801561022d575f80fd5b5061024860048036038101906102439190613105565b610719565b005b348015610255575f80fd5b50610270600480360381019061026b9190613196565b61073d565b60405161027f939291906131d0565b60405180910390f35b348015610293575f80fd5b5061029c610798565b005b3480156102a9575f80fd5b506102c460048036038101906102bf9190613105565b6107aa565b005b3480156102d1575f80fd5b506102ec60048036038101906102e79190613196565b6107ce565b6040516103029a99989796959493929190613311565b60405180910390f35b348015610316575f80fd5b50610331600480360381019061032c91906133b2565b610c0c565b005b34801561033e575f80fd5b5061035960048036038101906103549190613105565b610d79565b005b348015610366575f80fd5b50610381600480360381019061037c9190613196565b610d9d565b005b34801561038e575f80fd5b50610397610ef0565b005b3480156103a4575f80fd5b506103bf60048036038101906103ba9190613196565b610f93565b005b3480156103cc575f80fd5b506103e760048036038101906103e291906133b2565b6110e6565b005b61040360048036038101906103fe9190613196565b611255565b005b348015610410575f80fd5b5061041961156a565b005b348015610426575f80fd5b5061042f61157c565b005b34801561043c575f80fd5b5061045760048036038101906104529190613105565b61158f565b005b348015610464575f80fd5b5061047f600480360381019061047a9190613196565b61159b565b005b34801561048c575f80fd5b506104956116ee565b6040516104a291906133f0565b60405180910390f35b3480156104b6575f80fd5b506104d160048036038101906104cc9190613105565b611715565b6040516104de919061314a565b60405180910390f35b61050160048036038101906104fc9190613196565b611731565b005b34801561050e575f80fd5b5061052960048036038101906105249190613105565b611994565b604051610536919061314a565b60405180910390f35b61055960048036038101906105549190613196565b6119b0565b005b348015610566575f80fd5b50610581600480360381019061057c91906133b2565b611b03565b005b34801561058e575f80fd5b506105a960048036038101906105a49190613196565b611c6f565b6040516105bc9796959493929190613409565b60405180910390f35b6105df60048036038101906105da9190613196565b61208e565b005b3480156105ec575f80fd5b5061060760048036038101906106029190613196565b6122d1565b005b348015610614575f80fd5b5061062f600480360381019061062a9190613105565b612424565b005b34801561063c575f80fd5b5061065760048036038101906106529190613105565b612448565b604051610664919061314a565b60405180910390f35b348015610678575f80fd5b50610681612464565b60405161068e91906133f0565b60405180910390f35b3480156106a2575f80fd5b506106bd60048036038101906106b891906135b0565b61248b565b005b3480156106ca575f80fd5b506106d361291a565b005b3480156106e0575f80fd5b506106fb60048036038101906106f69190613105565b61292c565b005b5f6107128260046129ae90919063ffffffff16565b9050919050565b610729610724612a39565b612448565b610731575f80fd5b61073a81612a40565b50565b5f805f8060095f8681526020019081526020015f206040518060600160405290815f8201548152602001600182015481526020016002820154815250509050805f015181602001518260400151935093509350509193909250565b6107a86107a3612a39565b612a9a565b565b6107ba6107b5612a39565b611994565b6107c2575f80fd5b6107cb81612af4565b50565b5f805f60605f805f805f805f60085f8d81526020019081526020015f20604051806101a00160405290815f820154815260200160018201548152602001600282015f9054906101000a900473ffffffffffffffffffffffffffffffffffffffff1673ffffffffffffffffffffffffffffffffffffffff1673ffffffffffffffffffffffffffffffffffffffff168152602001600382015f9054906101000a900473ffffffffffffffffffffffffffffffffffffffff1673ffffffffffffffffffffffffffffffffffffffff1673ffffffffffffffffffffffffffffffffffffffff1681526020016004820180546108c490613679565b80601f01602080910402602001604051908101604052809291908181526020018280546108f090613679565b801561093b5780601f106109125761010080835404028352916020019161093b565b820191905f5260205f20905b81548152906001019060200180831161091e57829003601f168201915b5050505050815260200160058201805461095490613679565b80601f016020809104026020016040519081016040528092919081815260200182805461098090613679565b80156109cb5780601f106109a2576101008083540402835291602001916109cb565b820191905f5260205f20905b8154815290600101906020018083116109ae57829003601f168201915b505050505081526020016006820180546109e490613679565b80601f0160208091040260200160405190810160405280929190818152602001828054610a1090613679565b8015610a5b5780601f10610a3257610100808354040283529160200191610a5b565b820191905f5260205f20905b815481529060010190602001808311610a3e57829003601f168201915b505050505081526020016007820154815260200160088201548152602001600982015f9054906101000a900460ff16600c811115610a9c57610a9b61328f565b5b600c811115610aae57610aad61328f565b5b81526020016009820160019054906101000a900473ffffffffffffffffffffffffffffffffffffffff1673ffffffffffffffffffffffffffffffffffffffff1673ffffffffffffffffffffffffffffffffffffffff168152602001600a82015f9054906101000a900473ffffffffffffffffffffffffffffffffffffffff1673ffffffffffffffffffffffffffffffffffffffff1673ffffffffffffffffffffffffffffffffffffffff168152602001600b82015f9054906101000a900473ffffffffffffffffffffffffffffffffffffffff1673ffffffffffffffffffffffffffffffffffffffff1673ffffffffffffffffffffffffffffffffffffffff16815250509050805f0151816020015182602001518360c001518461010001518560e001518661012001518761016001518861014001518961018001519a509a509a509a509a509a509a509a509a509a50509193959799509193959799565b610c1c610c17612a39565b611715565b610c24575f80fd5b81600a600c811115610c3957610c3861328f565b5b60085f8381526020019081526020015f206009015f9054906101000a900460ff16600c811115610c6c57610c6b61328f565b5b14610c75575f80fd5b60085f8481526020019081526020015f206002015f9054906101000a900473ffffffffffffffffffffffffffffffffffffffff168073ffffffffffffffffffffffffffffffffffffffff16610cc8612a39565b73ffffffffffffffffffffffffffffffffffffffff1614610ce7575f80fd5b600760085f8681526020019081526020015f206009015f6101000a81548160ff0219169083600c811115610d1e57610d1d61328f565b5b02179055508260085f8681526020019081526020015f20600801819055507fa4a4a095cc564d095671abda6d3d021ff8860640ab6daeacfcae035a04e9fd4984604051610d6b91906136a9565b60405180910390a150505050565b610d89610d84612a39565b611715565b610d91575f80fd5b610d9a81612b4e565b50565b610dad610da8612a39565b611715565b610db5575f80fd5b806009600c811115610dca57610dc961328f565b5b60085f8381526020019081526020015f206009015f9054906101000a900460ff16600c811115610dfd57610dfc61328f565b5b14610e06575f80fd5b60085f8381526020019081526020015f206002015f9054906101000a900473ffffffffffffffffffffffffffffffffffffffff168073ffffffffffffffffffffffffffffffffffffffff16610e59612a39565b73ffffffffffffffffffffffffffffffffffffffff1614610e78575f80fd5b600460085f8581526020019081526020015f206009015f6101000a81548160ff0219169083600c811115610eaf57610eae61328f565b5b02179055507f066bdc34ab5d41e989ac53a01c00b220e4b2fbd678f041534e8cd0a4cc88edbc83604051610ee391906136a9565b60405180910390a1505050565b60065f9054906101000a900473ffffffffffffffffffffffffffffffffffffffff1673ffffffffffffffffffffffffffffffffffffffff16610f30612a39565b73ffffffffffffffffffffffffffffffffffffffff1603610f91575f610f7660065f9054906101000a900473ffffffffffffffffffffffffffffffffffffffff16612ba8565b90508073ffffffffffffffffffffffffffffffffffffffff16ff5b565b610fa3610f9e612a39565b611994565b610fab575f80fd5b806003600c811115610fc057610fbf61328f565b5b60085f8381526020019081526020015f206009015f9054906101000a900460ff16600c811115610ff357610ff261328f565b5b14610ffc575f80fd5b60085f8381526020019081526020015f206002015f9054906101000a900473ffffffffffffffffffffffffffffffffffffffff168073ffffffffffffffffffffffffffffffffffffffff1661104f612a39565b73ffffffffffffffffffffffffffffffffffffffff161461106e575f80fd5b600460085f8581526020019081526020015f206009015f6101000a81548160ff0219169083600c8111156110a5576110a461328f565b5b02179055507f322f34e90f2269750b3e28178631d975cc678db36f21098fe548b7f755ce0bd0836040516110d991906136a9565b60405180910390a1505050565b6110f66110f1612a39565b611994565b6110fe575f80fd5b816006600c8111156111135761111261328f565b5b60085f8381526020019081526020015f206009015f9054906101000a900460ff16600c8111156111465761114561328f565b5b1461114f575f80fd5b60085f8481526020019081526020015f206002015f9054906101000a900473ffffffffffffffffffffffffffffffffffffffff168073ffffffffffffffffffffffffffffffffffffffff166111a2612a39565b73ffffffffffffffffffffffffffffffffffffffff16146111c1575f80fd5b600760085f8681526020019081526020015f206009015f6101000a81548160ff0219169083600c8111156111f8576111f761328f565b5b02179055508260085f8681526020019081526020015f20600801819055507f59e7ad085805e2b02ad4b0f8033bd75e7ee4c8cd43f996267463585e3589625260055460405161124791906136a9565b60405180910390a150505050565b611265611260612a39565b6106fd565b61126d575f80fd5b80600b600c8111156112825761128161328f565b5b60085f8381526020019081526020015f206009015f9054906101000a900460ff16600c8111156112b5576112b461328f565b5b146112be575f80fd5b816112c7612a39565b5f60085f8481526020019081526020015f206008015490505f81346112ec91906136ef565b90508273ffffffffffffffffffffffffffffffffffffffff166108fc8290811502906040515f60405180830381858888f19350505050158015611331573d5f803e3d5ffd5b5061133a612a39565b60085f8881526020019081526020015f20600b015f6101000a81548173ffffffffffffffffffffffffffffffffffffffff021916908373ffffffffffffffffffffffffffffffffffffffff1602179055505f6113c960085f8981526020019081526020015f2060090160019054906101000a900473ffffffffffffffffffffffffffffffffffffffff16612ba8565b90508073ffffffffffffffffffffffffffffffffffffffff166108fc60085f8a81526020019081526020015f206008015490811502906040515f60405180830381858888f19350505050158015611422573d5f803e3d5ffd5b5061142b612a39565b60085f8981526020019081526020015f206002015f6101000a81548173ffffffffffffffffffffffffffffffffffffffff021916908373ffffffffffffffffffffffffffffffffffffffff160217905550611484612a39565b60085f8981526020019081526020015f20600b015f6101000a81548173ffffffffffffffffffffffffffffffffffffffff021916908373ffffffffffffffffffffffffffffffffffffffff160217905550600c60085f8981526020019081526020015f206009015f6101000a81548160ff0219169083600c81111561150c5761150b61328f565b5b02179055504360095f8981526020019081526020015f20600201819055507ffd054e59d299873fab61a3c67d86d3a139b75dcd5cd82894d8983fc5e2669c828760405161155991906136a9565b60405180910390a150505050505050565b61157a611575612a39565b612bb1565b565b611584612c0b565b61158d5f612c89565b565b61159881612d4a565b50565b6115ab6115a6612a39565b611994565b6115b3575f80fd5b806008600c8111156115c8576115c761328f565b5b60085f8381526020019081526020015f206009015f9054906101000a900460ff16600c8111156115fb576115fa61328f565b5b14611604575f80fd5b60085f8381526020019081526020015f2060090160019054906101000a900473ffffffffffffffffffffffffffffffffffffffff168073ffffffffffffffffffffffffffffffffffffffff16611658612a39565b73ffffffffffffffffffffffffffffffffffffffff1614611677575f80fd5b600960085f8581526020019081526020015f206009015f6101000a81548160ff0219169083600c8111156116ae576116ad61328f565b5b02179055507e114a6fadb43e05c82c84612f44de7a592a32426b619579ae7bb4f3815616c7836040516116e191906136a9565b60405180910390a1505050565b5f805f9054906101000a900473ffffffffffffffffffffffffffffffffffffffff16905090565b5f61172a8260036129ae90919063ffffffff16565b9050919050565b61174161173c612a39565b611715565b611749575f80fd5b806007600c81111561175e5761175d61328f565b5b60085f8381526020019081526020015f206009015f9054906101000a900460ff16600c8111156117915761179061328f565b5b1461179a575f80fd5b816117a3612a39565b5f60085f8481526020019081526020015f206008015490505f81346117c891906136ef565b90508273ffffffffffffffffffffffffffffffffffffffff166108fc8290811502906040515f60405180830381858888f1935050505015801561180d573d5f803e3d5ffd5b505f61184c60085f8981526020019081526020015f2060090160019054906101000a900473ffffffffffffffffffffffffffffffffffffffff16612ba8565b90508073ffffffffffffffffffffffffffffffffffffffff166108fc60085f8a81526020019081526020015f206008015490811502906040515f60405180830381858888f193505050501580156118a5573d5f803e3d5ffd5b506118ae612a39565b60085f8981526020019081526020015f206002015f6101000a81548173ffffffffffffffffffffffffffffffffffffffff021916908373ffffffffffffffffffffffffffffffffffffffff160217905550600260085f8981526020019081526020015f206009015f6101000a81548160ff0219169083600c8111156119365761193561328f565b5b02179055504360095f8981526020019081526020015f20600101819055507f8532a0a6e3631c6f95b037757376c1fb0e275923332f64c83b40bbb6a5551e478760405161198391906136a9565b60405180910390a150505050505050565b5f6119a98260026129ae90919063ffffffff16565b9050919050565b6119c06119bb612a39565b612448565b6119c8575f80fd5b806002600c8111156119dd576119dc61328f565b5b60085f8381526020019081526020015f206009015f9054906101000a900460ff16600c811115611a1057611a0f61328f565b5b14611a19575f80fd5b60085f8381526020019081526020015f206003015f9054906101000a900473ffffffffffffffffffffffffffffffffffffffff168073ffffffffffffffffffffffffffffffffffffffff16611a6c612a39565b73ffffffffffffffffffffffffffffffffffffffff1614611a8b575f80fd5b600360085f8581526020019081526020015f206009015f6101000a81548160ff0219169083600c811115611ac257611ac161328f565b5b02179055507fe6ae062d51064ae2a5a31a72fcb1bee1d343fdc6bddc1d3dfce658ece4f0321283604051611af691906136a9565b60405180910390a1505050565b611b13611b0e612a39565b612448565b611b1b575f80fd5b815f600c811115611b2f57611b2e61328f565b5b60085f8381526020019081526020015f206009015f9054906101000a900460ff16600c811115611b6257611b6161328f565b5b14611b6b575f80fd5b60085f8481526020019081526020015f206002015f9054906101000a900473ffffffffffffffffffffffffffffffffffffffff168073ffffffffffffffffffffffffffffffffffffffff16611bbe612a39565b73ffffffffffffffffffffffffffffffffffffffff1614611bdd575f80fd5b600160085f8681526020019081526020015f206009015f6101000a81548160ff0219169083600c811115611c1457611c1361328f565b5b02179055508260085f8681526020019081526020015f20600801819055507f7a02b5a0b1f928cffcafd0e750f369a40f124f4f34f65801fe1f0d945b9a791584604051611c6191906136a9565b60405180910390a150505050565b5f805f806060805f8060085f8a81526020019081526020015f20604051806101a00160405290815f820154815260200160018201548152602001600282015f9054906101000a900473ffffffffffffffffffffffffffffffffffffffff1673ffffffffffffffffffffffffffffffffffffffff1673ffffffffffffffffffffffffffffffffffffffff168152602001600382015f9054906101000a900473ffffffffffffffffffffffffffffffffffffffff1673ffffffffffffffffffffffffffffffffffffffff1673ffffffffffffffffffffffffffffffffffffffff168152602001600482018054611d6290613679565b80601f0160208091040260200160405190810160405280929190818152602001828054611d8e90613679565b8015611dd95780601f10611db057610100808354040283529160200191611dd9565b820191905f5260205f20905b815481529060010190602001808311611dbc57829003601f168201915b50505050508152602001600582018054611df290613679565b80601f0160208091040260200160405190810160405280929190818152602001828054611e1e90613679565b8015611e695780601f10611e4057610100808354040283529160200191611e69565b820191905f5260205f20905b815481529060010190602001808311611e4c57829003601f168201915b50505050508152602001600682018054611e8290613679565b80601f0160208091040260200160405190810160405280929190818152602001828054611eae90613679565b8015611ef95780601f10611ed057610100808354040283529160200191611ef9565b820191905f5260205f20905b815481529060010190602001808311611edc57829003601f168201915b505050505081526020016007820154815260200160088201548152602001600982015f9054906101000a900460ff16600c811115611f3a57611f3961328f565b5b600c811115611f4c57611f4b61328f565b5b81526020016009820160019054906101000a900473ffffffffffffffffffffffffffffffffffffffff1673ffffffffffffffffffffffffffffffffffffffff1673ffffffffffffffffffffffffffffffffffffffff168152602001600a82015f9054906101000a900473ffffffffffffffffffffffffffffffffffffffff1673ffffffffffffffffffffffffffffffffffffffff1673ffffffffffffffffffffffffffffffffffffffff168152602001600b82015f9054906101000a900473ffffffffffffffffffffffffffffffffffffffff1673ffffffffffffffffffffffffffffffffffffffff1673ffffffffffffffffffffffffffffffffffffffff16815250509050805f015181602001518260400151836060015184608001518560a001518660e00151975097509750975097509750975050919395979092949650565b61209e612099612a39565b611994565b6120a6575f80fd5b806001600c8111156120bb576120ba61328f565b5b60085f8381526020019081526020015f206009015f9054906101000a900460ff16600c8111156120ee576120ed61328f565b5b146120f7575f80fd5b5f61213460085f8581526020019081526020015f206003015f9054906101000a900473ffffffffffffffffffffffffffffffffffffffff16612ba8565b90508073ffffffffffffffffffffffffffffffffffffffff166108fc60085f8681526020019081526020015f206008015490811502906040515f60405180830381858888f1935050505015801561218d573d5f803e3d5ffd5b50612196612a39565b60085f8581526020019081526020015f206002015f6101000a81548173ffffffffffffffffffffffffffffffffffffffff021916908373ffffffffffffffffffffffffffffffffffffffff1602179055506121ef612a39565b60085f8581526020019081526020015f2060090160016101000a81548173ffffffffffffffffffffffffffffffffffffffff021916908373ffffffffffffffffffffffffffffffffffffffff160217905550600260085f8581526020019081526020015f206009015f6101000a81548160ff0219169083600c8111156122785761227761328f565b5b02179055504360095f8581526020019081526020015f205f01819055507faa7352d10146444c3afd9bd7fb0ae56b0a85e81139536bbec3f1f660fddd7be1836040516122c491906136a9565b60405180910390a1505050565b6122e16122dc612a39565b611994565b6122e9575f80fd5b806005600c8111156122fe576122fd61328f565b5b60085f8381526020019081526020015f206009015f9054906101000a900460ff16600c8111156123315761233061328f565b5b1461233a575f80fd5b60085f8381526020019081526020015f206002015f9054906101000a900473ffffffffffffffffffffffffffffffffffffffff168073ffffffffffffffffffffffffffffffffffffffff1661238d612a39565b73ffffffffffffffffffffffffffffffffffffffff16146123ac575f80fd5b600660085f8581526020019081526020015f206009015f6101000a81548160ff0219169083600c8111156123e3576123e261328f565b5b02179055507fa359a39df28a278d8560a2cdc6914d0ce1eb9694f2e480efd0d5edff262dddbd8360405161241791906136a9565b60405180910390a1505050565b61243461242f612a39565b6106fd565b61243c575f80fd5b61244581612da4565b50565b5f61245d8260016129ae90919063ffffffff16565b9050919050565b5f805f9054906101000a900473ffffffffffffffffffffffffffffffffffffffff16905090565b61249b612496612a39565b612448565b6124a3575f80fd5b5f805f6124ae612f9e565b600754815f018181525050878160200181815250506124cb612a39565b816040019073ffffffffffffffffffffffffffffffffffffffff16908173ffffffffffffffffffffffffffffffffffffffff168152505061250a612a39565b816060019073ffffffffffffffffffffffffffffffffffffffff16908173ffffffffffffffffffffffffffffffffffffffff1681525050868160800181905250858160a00181905250600754886125619190613722565b8160200181815250508481610100018181525050428160e00181815250505f816101200190600c8111156125985761259761328f565b5b9081600c8111156125ac576125ab61328f565b5b815250508381610140019073ffffffffffffffffffffffffffffffffffffffff16908173ffffffffffffffffffffffffffffffffffffffff16815250508281610160019073ffffffffffffffffffffffffffffffffffffffff16908173ffffffffffffffffffffffffffffffffffffffff16815250508181610180019073ffffffffffffffffffffffffffffffffffffffff16908173ffffffffffffffffffffffffffffffffffffffff16815250508060085f8a81526020019081526020015f205f820151815f0155602082015181600101556040820151816002015f6101000a81548173ffffffffffffffffffffffffffffffffffffffff021916908373ffffffffffffffffffffffffffffffffffffffff1602179055506060820151816003015f6101000a81548173ffffffffffffffffffffffffffffffffffffffff021916908373ffffffffffffffffffffffffffffffffffffffff160217905550608082015181600401908161272091906138f2565b5060a082015181600501908161273691906138f2565b5060c082015181600601908161274c91906138f2565b5060e082015181600701556101008201518160080155610120820151816009015f6101000a81548160ff0219169083600c81111561278d5761278c61328f565b5b02179055506101408201518160090160016101000a81548173ffffffffffffffffffffffffffffffffffffffff021916908373ffffffffffffffffffffffffffffffffffffffff16021790555061016082015181600a015f6101000a81548173ffffffffffffffffffffffffffffffffffffffff021916908373ffffffffffffffffffffffffffffffffffffffff16021790555061018082015181600b015f6101000a81548173ffffffffffffffffffffffffffffffffffffffff021916908373ffffffffffffffffffffffffffffffffffffffff1602179055509050505f61287461307c565b81815f01818152505081816020018181525050818160400181815250508060095f8c81526020019081526020015f205f820151815f0155602082015181600101556040820151816002015590505060016007546128d19190613722565b6007819055507fe8a027a2bb83abbf6ec926b84d4aeb91585c16b58b27b8d0f0fb451566a552118a60405161290691906136a9565b60405180910390a150505050505050505050565b61292a612925612a39565b612dfe565b565b612934612c0b565b5f73ffffffffffffffffffffffffffffffffffffffff168173ffffffffffffffffffffffffffffffffffffffff16036129a2576040517f08c379a0000000000000000000000000000000000000000000000000000000008152600401612999906139e4565b60405180910390fd5b6129ab81612c89565b50565b5f8073ffffffffffffffffffffffffffffffffffffffff168273ffffffffffffffffffffffffffffffffffffffff16036129e6575f80fd5b825f015f8373ffffffffffffffffffffffffffffffffffffffff1673ffffffffffffffffffffffffffffffffffffffff1681526020019081526020015f205f9054906101000a900460ff16905092915050565b5f33905090565b612a54816001612e5890919063ffffffff16565b8073ffffffffffffffffffffffffffffffffffffffff167f2e0ded4123377a3c2bc9a26f1717655a129e2f20752924d42e730ec89c83dbd060405160405180910390a250565b612aae816001612efc90919063ffffffff16565b8073ffffffffffffffffffffffffffffffffffffffff167fa5e0f060af304ab17dd418c7927e3da3ae7868189bf387aee09ab179ccc572f260405160405180910390a250565b612b08816002612e5890919063ffffffff16565b8073ffffffffffffffffffffffffffffffffffffffff167f71ae26cad02663e3d92efd6ec56031a80d74a20c0ab4183faa8bf262261c9baa60405160405180910390a250565b612b62816003612e5890919063ffffffff16565b8073ffffffffffffffffffffffffffffffffffffffff167f69b08bfa7665151fbe9a5ea73b256df36b75fa729ede699de2539e9366b70ca060405160405180910390a250565b5f819050919050565b612bc5816002612efc90919063ffffffff16565b8073ffffffffffffffffffffffffffffffffffffffff167fdb7176e79cffef81cb01767dd0447a0b24bb72ca9778d4b245581086b2a7e6db60405160405180910390a250565b612c136116ee565b73ffffffffffffffffffffffffffffffffffffffff16612c31612a39565b73ffffffffffffffffffffffffffffffffffffffff1614612c87576040517f08c379a0000000000000000000000000000000000000000000000000000000008152600401612c7e906139e4565b60405180910390fd5b565b5f805f9054906101000a900473ffffffffffffffffffffffffffffffffffffffff169050815f806101000a81548173ffffffffffffffffffffffffffffffffffffffff021916908373ffffffffffffffffffffffffffffffffffffffff1602179055508173ffffffffffffffffffffffffffffffffffffffff168173ffffffffffffffffffffffffffffffffffffffff167f8be0079c531659141344cd1fd0a4f28419497f9722a3daafe3b4186f6b6457e060405160405180910390a35050565b612d5e816004612efc90919063ffffffff16565b8073ffffffffffffffffffffffffffffffffffffffff167fb4c88a9c5cd906354abdd1cc29e4f94c6c4de90754fb80ce51e6a33417bc81b660405160405180910390a250565b612db8816004612e5890919063ffffffff16565b8073ffffffffffffffffffffffffffffffffffffffff167fcd118a02bd36f224f6f1b93812f78d2bbc2c2dc1bc0f60c176e3b4fe09f1483f60405160405180910390a250565b612e12816003612efc90919063ffffffff16565b8073ffffffffffffffffffffffffffffffffffffffff167f0ead35fea341a78f80aa3d8f3af53a7d5a2eea270c1db57f05de233b08f8a6cc60405160405180910390a250565b5f73ffffffffffffffffffffffffffffffffffffffff168173ffffffffffffffffffffffffffffffffffffffff1603612e8f575f80fd5b612e9982826129ae565b15612ea2575f80fd5b6001825f015f8373ffffffffffffffffffffffffffffffffffffffff1673ffffffffffffffffffffffffffffffffffffffff1681526020019081526020015f205f6101000a81548160ff0219169083151502179055505050565b5f73ffffffffffffffffffffffffffffffffffffffff168173ffffffffffffffffffffffffffffffffffffffff1603612f33575f80fd5b612f3d82826129ae565b612f45575f80fd5b5f825f015f8373ffffffffffffffffffffffffffffffffffffffff1673ffffffffffffffffffffffffffffffffffffffff1681526020019081526020015f205f6101000a81548160ff0219169083151502179055505050565b604051806101a001604052805f81526020015f81526020015f73ffffffffffffffffffffffffffffffffffffffff1681526020015f73ffffffffffffffffffffffffffffffffffffffff1681526020016060815260200160608152602001606081526020015f81526020015f81526020015f600c8111156130225761302161328f565b5b81526020015f73ffffffffffffffffffffffffffffffffffffffff1681526020015f73ffffffffffffffffffffffffffffffffffffffff1681526020015f73ffffffffffffffffffffffffffffffffffffffff1681525090565b60405180606001604052805f81526020015f81526020015f81525090565b5f604051905090565b5f80fd5b5f80fd5b5f73ffffffffffffffffffffffffffffffffffffffff82169050919050565b5f6130d4826130ab565b9050919050565b6130e4816130ca565b81146130ee575f80fd5b50565b5f813590506130ff816130db565b92915050565b5f6020828403121561311a576131196130a3565b5b5f613127848285016130f1565b91505092915050565b5f8115159050919050565b61314481613130565b82525050565b5f60208201905061315d5f83018461313b565b92915050565b5f819050919050565b61317581613163565b811461317f575f80fd5b50565b5f813590506131908161316c565b92915050565b5f602082840312156131ab576131aa6130a3565b5b5f6131b884828501613182565b91505092915050565b6131ca81613163565b82525050565b5f6060820190506131e35f8301866131c1565b6131f060208301856131c1565b6131fd60408301846131c1565b949350505050565b5f81519050919050565b5f82825260208201905092915050565b5f5b8381101561323c578082015181840152602081019050613221565b5f8484015250505050565b5f601f19601f8301169050919050565b5f61326182613205565b61326b818561320f565b935061327b81856020860161321f565b61328481613247565b840191505092915050565b7f4e487b71000000000000000000000000000000000000000000000000000000005f52602160045260245ffd5b600d81106132cd576132cc61328f565b5b50565b5f8190506132dd826132bc565b919050565b5f6132ec826132d0565b9050919050565b6132fc816132e2565b82525050565b61330b816130ca565b82525050565b5f610140820190506133255f83018d6131c1565b613332602083018c6131c1565b61333f604083018b6131c1565b8181036060830152613351818a613257565b905061336060808301896131c1565b61336d60a08301886131c1565b61337a60c08301876132f3565b61338760e0830186613302565b613395610100830185613302565b6133a3610120830184613302565b9b9a5050505050505050505050565b5f80604083850312156133c8576133c76130a3565b5b5f6133d585828601613182565b92505060206133e685828601613182565b9150509250929050565b5f6020820190506134035f830184613302565b92915050565b5f60e08201905061341c5f83018a6131c1565b61342960208301896131c1565b6134366040830188613302565b6134436060830187613302565b81810360808301526134558186613257565b905081810360a08301526134698185613257565b905061347860c08301846131c1565b98975050505050505050565b5f80fd5b5f80fd5b7f4e487b71000000000000000000000000000000000000000000000000000000005f52604160045260245ffd5b6134c282613247565b810181811067ffffffffffffffff821117156134e1576134e061348c565b5b80604052505050565b5f6134f361309a565b90506134ff82826134b9565b919050565b5f67ffffffffffffffff82111561351e5761351d61348c565b5b61352782613247565b9050602081019050919050565b828183375f83830152505050565b5f61355461354f84613504565b6134ea565b9050828152602081018484840111156135705761356f613488565b5b61357b848285613534565b509392505050565b5f82601f83011261359757613596613484565b5b81356135a7848260208601613542565b91505092915050565b5f805f80608085870312156135c8576135c76130a3565b5b5f6135d587828801613182565b945050602085013567ffffffffffffffff8111156135f6576135f56130a7565b5b61360287828801613583565b935050604085013567ffffffffffffffff811115613623576136226130a7565b5b61362f87828801613583565b925050606061364087828801613182565b91505092959194509250565b7f4e487b71000000000000000000000000000000000000000000000000000000005f52602260045260245ffd5b5f600282049050600182168061369057607f821691505b6020821081036136a3576136a261364c565b5b50919050565b5f6020820190506136bc5f8301846131c1565b92915050565b7f4e487b71000000000000000000000000000000000000000000000000000000005f52601160045260245ffd5b5f6136f982613163565b915061370483613163565b925082820390508181111561371c5761371b6136c2565b5b92915050565b5f61372c82613163565b915061373783613163565b925082820190508082111561374f5761374e6136c2565b5b92915050565b5f819050815f5260205f209050919050565b5f6020601f8301049050919050565b5f82821b905092915050565b5f600883026137b17fffffffffffffffffffffffffffffffffffffffffffffffffffffffffffffffff82613776565b6137bb8683613776565b95508019841693508086168417925050509392505050565b5f819050919050565b5f6137f66137f16137ec84613163565b6137d3565b613163565b9050919050565b5f819050919050565b61380f836137dc565b61382361381b826137fd565b848454613782565b825550505050565b5f90565b61383761382b565b613842818484613806565b505050565b5b818110156138655761385a5f8261382f565b600181019050613848565b5050565b601f8211156138aa5761387b81613755565b61388484613767565b81016020851015613893578190505b6138a761389f85613767565b830182613847565b50505b505050565b5f82821c905092915050565b5f6138ca5f19846008026138af565b1980831691505092915050565b5f6138e283836138bb565b9150826002028217905092915050565b6138fb82613205565b67ffffffffffffffff8111156139145761391361348c565b5b61391e8254613679565b613929828285613869565b5f60209050601f83116001811461395a575f8415613948578287015190505b61395285826138d7565b8655506139b9565b601f19841661396886613755565b5f5b8281101561398f5784890151825560018201915060208501945060208101905061396a565b868310156139ac57848901516139a8601f8916826138bb565b8355505b6001600288020188555050505b505050505050565b50565b5f6139cf5f8361320f565b91506139da826139c1565b5f82019050919050565b5f6020820190508181035f8301526139fb816139c4565b905091905056fea2646970667358221220a40eea467e928e1c0ebed5377a6d02b70ac6e521bcf9f13b824694659ce3157b64736f6c63430008150033",
  "immutableReferences": {},
  "source": "pragma solidity >=0.4.22 <0.9.0;\r\n\r\nimport \"../ownership/Ownable.sol\";\r\nimport \"../accessControl/FarmerRole.sol\";\r\nimport \"../accessControl/RetailerRole.sol\";\r\nimport \"../accessControl/GrocerRole.sol\";\r\nimport \"../accessControl/CustomerRole.sol\";\r\n\r\ncontract SupplyChain is\r\n    Ownable,\r\n    FarmerRole,\r\n    RetailerRole,\r\n    GrocerRole,\r\n    CustomerRole\r\n{\r\n    \r\n    uint256 productID;\r\n\r\n    address owner;\r\n\r\n    uint256 stockUnit;\r\n\r\n    mapping(uint256 => Item) items;\r\n\r\n    mapping(uint256 => Txblocks) itemsHistory;\r\n\r\n    enum State {\r\n        ProduceByFarmer, \r\n        ForSaleByFarmer, \r\n        PurchasedByRetailer, \r\n        ShippedByFarmer, \r\n        ReceivedByRetailer, \r\n        ProcessedByRetailer, \r\n        PackageByRetailer, \r\n        ForSaleByRetailer, \r\n        PurchasedByGrocer, \r\n        ShippedByRetailer, \r\n        ReceivedByGrocer, \r\n        ForSaleByGrocer, \r\n        PurchasedByCustomer \r\n    }\r\n\r\n    State constant defaultState = State.ProduceByFarmer;\r\n\r\n    struct Item {\r\n        uint256 stockUnit; \r\n        uint256 productID; \r\n        address ownerID; \r\n        address farmerID; \r\n        string farmName; \r\n        string farmInformation; \r\n        string productNotes; \r\n        uint256 productDate; \r\n        uint256 productPrice; \r\n        State itemState; \r\n        address retailerID; \r\n        address grocerID; \r\n        address customerID; \r\n    }\r\n\r\n    struct Txblocks {\r\n        uint256 FTD; \r\n        uint256 DTR; \r\n        uint256 RTC; \r\n    }\r\n\r\n    event ProduceByFarmer(uint256 productID); \r\n    event ForSaleByFarmer(uint256 productID); \r\n    event PurchasedByRetailer(uint256 productID); \r\n    event ShippedByFarmer(uint256 productID); \r\n    event ReceivedByRetailer(uint256 productID); \r\n    event ProcessedByRetailer(uint256 productID); \r\n    event PackagedByRetailer(uint256 productID); \r\n    event ForSaleByRetailer(uint256 productID); \r\n    event PurchasedByGrocer(uint256 productID); \r\n    event ShippedByRetailer(uint256 productID); \r\n    event ReceivedByGrocer(uint256 productID); \r\n    event ForSaleByGrocer(uint256 productID); \r\n    event PurchasedByCustomer(uint256 productID); \r\n\r\n    modifier only_Owner() {\r\n        require(_msgSender() == owner);\r\n        _;\r\n    }\r\n\r\n    modifier verifyCaller(address _address) {\r\n        require(_msgSender() == _address);\r\n        _;\r\n    }\r\n\r\n\r\n    modifier checkValue(uint256 _productID, address payable addressToFund) {\r\n        uint256 _price = items[_productID].productPrice;\r\n        uint256 amountToReturn = msg.value - _price;\r\n        addressToFund.transfer(amountToReturn);\r\n        _;\r\n    }\r\n\r\n    modifier harvestedByFarmer(uint256 _productID) {\r\n        require(items[_productID].itemState == State.ProduceByFarmer);\r\n        _;\r\n    }\r\n\r\n    modifier readyForSaleByFarmer(uint256 _productID) {\r\n        require(items[_productID].itemState == State.ForSaleByFarmer);\r\n        _;\r\n    }\r\n\r\n    modifier retailerPurchases(uint256 _productID) {\r\n        require(items[_productID].itemState == State.PurchasedByRetailer);\r\n        _;\r\n    }\r\n\r\n    modifier farmerShips(uint256 _productID) {\r\n        require(items[_productID].itemState == State.ShippedByFarmer);\r\n        _;\r\n    }\r\n\r\n    modifier retailerRecieves(uint256 _productID) {\r\n        require(items[_productID].itemState == State.ReceivedByRetailer);\r\n        _;\r\n    }\r\n\r\n    modifier retailerProcesses(uint256 _productID) {\r\n        require(items[_productID].itemState == State.ProcessedByRetailer);\r\n        _;\r\n    }\r\n\r\n    modifier retailerPackages(uint256 _productID) {\r\n        require(items[_productID].itemState == State.PackageByRetailer);\r\n        _;\r\n    }\r\n\r\n    modifier retailerReadyForSale(uint256 _productID) {\r\n        require(items[_productID].itemState == State.ForSaleByRetailer);\r\n        _;\r\n    }\r\n\r\n    modifier retailerShips(uint256 _productID) {\r\n        require(items[_productID].itemState == State.ShippedByRetailer);\r\n        _;\r\n    }\r\n\r\n    modifier grocerPurchases(uint256 _productID) {\r\n        require(items[_productID].itemState == State.PurchasedByGrocer);\r\n        _;\r\n    }\r\n\r\n    modifier grocerReceives (uint256 _productID) {\r\n        require(items[_productID].itemState == State.ReceivedByGrocer);\r\n        _;\r\n    }\r\n\r\n    modifier readyForSaleByGrocer (uint256 _productID) {\r\n        require(items[_productID].itemState == State.ForSaleByGrocer);\r\n        _;\r\n    }\r\n\r\n    modifier customerPurchases (uint256 _productID) {\r\n        require(items[_productID].itemState == State.PurchasedByCustomer);\r\n        _;\r\n    }\r\n\r\n    constructor() public payable {\r\n        owner = _msgSender();\r\n        stockUnit = 1;\r\n        productID = 1;\r\n    }\r\n\r\n    function kill() public {\r\n        if (_msgSender() == owner) {\r\n            address payable ownerAddressPayable = _make_payable(owner);\r\n            selfdestruct(ownerAddressPayable);\r\n        }\r\n    }\r\n\r\n    function _make_payable(address x) internal pure returns (address payable) {\r\n        return payable(address(uint160(x)));\r\n    }\r\n\r\n    function produceItemByFarmer(\r\n        uint256 _productID,\r\n        string memory _farmName,\r\n        string memory _farmInformation,\r\n        uint256 _price\r\n    )\r\n        public farmerExists \r\n    {\r\n        address retailerID; \r\n        address grocerID; \r\n        address customerID; \r\n        Item memory freshProduct; \r\n        freshProduct.stockUnit = stockUnit; \r\n        freshProduct.productID = _productID; \r\n        freshProduct.ownerID = _msgSender(); \r\n        freshProduct.farmerID = _msgSender(); \r\n        freshProduct.farmName = _farmName; \r\n        freshProduct.farmInformation = _farmInformation; \r\n        freshProduct.productID = _productID + stockUnit; \r\n        freshProduct.productPrice = _price; \r\n        freshProduct.productDate = block.timestamp;\r\n        freshProduct.itemState = defaultState; \r\n        freshProduct.retailerID = retailerID; \r\n        freshProduct.grocerID = grocerID; \r\n        freshProduct.customerID = customerID; \r\n        items[_productID] = freshProduct; \r\n        uint256 placeholder; \r\n        Txblocks memory txBlock; \r\n        txBlock.FTD = placeholder; \r\n        txBlock.DTR = placeholder;\r\n        txBlock.RTC = placeholder;\r\n        itemsHistory[_productID] = txBlock; \r\n\r\n        stockUnit = stockUnit + 1;\r\n\r\n        emit ProduceByFarmer(_productID);\r\n    }\r\n\r\n\r\n    function farmerSellsItem(uint256 _productID, uint256 _price)\r\n        public\r\n        farmerExists \r\n        harvestedByFarmer(_productID) \r\n        verifyCaller(items[_productID].ownerID) \r\n    {\r\n        items[_productID].itemState = State.ForSaleByFarmer;\r\n        items[_productID].productPrice = _price;\r\n        emit ForSaleByFarmer(_productID);\r\n    }\r\n\r\n    function retailerBuysItem(uint256 _productID)\r\n        public\r\n        payable\r\n        retailerExists \r\n        readyForSaleByFarmer(_productID) \r\n    {\r\n        address payable ownerAddressPayable = _make_payable(\r\n            items[_productID].farmerID\r\n        ); \r\n        ownerAddressPayable.transfer(items[_productID].productPrice); \r\n        items[_productID].ownerID = _msgSender(); \r\n        items[_productID].retailerID = _msgSender(); \r\n        items[_productID].itemState = State.PurchasedByRetailer; \r\n        itemsHistory[_productID].FTD = block.number; \r\n        emit PurchasedByRetailer(_productID);\r\n    }\r\n\r\n \r\n    function farmerShipsProduct(uint256 _productID)\r\n        public\r\n        payable\r\n        farmerExists \r\n        retailerPurchases(_productID)\r\n        verifyCaller(items[_productID].farmerID) \r\n    {\r\n        items[_productID].itemState = State.ShippedByFarmer; \r\n        emit ShippedByFarmer(_productID);\r\n    }\r\n\r\n \r\n    function retailerReceivesProduct(uint256 _productID)\r\n        public\r\n        retailerExists \r\n        farmerShips(_productID)\r\n        verifyCaller(items[_productID].ownerID) \r\n    {\r\n        items[_productID].itemState = State.ReceivedByRetailer; \r\n        emit ReceivedByRetailer(_productID);\r\n    }\r\n\r\n\r\n    function retailerPackagesProduct(uint256 _productID)\r\n        public\r\n        retailerExists \r\n        retailerProcesses(_productID)\r\n        verifyCaller(items[_productID].ownerID) \r\n    {\r\n        items[_productID].itemState = State.PackageByRetailer;\r\n        emit PackagedByRetailer(_productID);\r\n    }\r\n\r\n    function retailerSellsProduct(uint256 _productID, uint256 _price)\r\n        public\r\n        retailerExists \r\n        retailerPackages(_productID)\r\n        verifyCaller(items[_productID].ownerID) \r\n    {\r\n        items[_productID].itemState = State.ForSaleByRetailer;\r\n        items[_productID].productPrice = _price;\r\n        emit ForSaleByRetailer(productID);\r\n    }\r\n\r\n    function productPurchasedByGrocer(uint256 _productID)\r\n        public\r\n        payable\r\n        grocerExists \r\n        retailerReadyForSale(_productID)\r\n        checkValue(_productID, payable(_msgSender()))\r\n    {\r\n        address payable ownerAddressPayable = _make_payable(\r\n            items[_productID].retailerID\r\n        );\r\n        ownerAddressPayable.transfer(items[_productID].productPrice);\r\n        items[_productID].ownerID = _msgSender();\r\n        items[_productID].itemState = State.PurchasedByRetailer;\r\n        itemsHistory[_productID].DTR = block.number;\r\n        emit PurchasedByGrocer(_productID);\r\n    } \r\n\r\n    function itemShippedByRetailer(uint256 _productID)\r\n        public\r\n        retailerExists \r\n        grocerPurchases(_productID)\r\n        verifyCaller(items[_productID].retailerID) \r\n    {\r\n        items[_productID].itemState = State.ShippedByRetailer;\r\n        emit ShippedByRetailer(_productID);\r\n    }\r\n\r\n    function receivedItemByGrocer(uint256 _productID)\r\n        public\r\n        grocerExists \r\n        retailerShips(_productID)\r\n        verifyCaller(items[_productID].ownerID) \r\n    {\r\n        items[_productID].itemState = State.ReceivedByRetailer;\r\n        emit ReceivedByGrocer(_productID);\r\n    }\r\n\r\n    function sellItemByGrocer(uint256 _productID, uint256 _price)\r\n        public\r\n        grocerExists\r\n        grocerReceives(_productID)\r\n        verifyCaller(items[_productID].ownerID) \r\n    {\r\n        items[_productID].itemState = State.ForSaleByRetailer;\r\n        items[_productID].productPrice = _price;\r\n        emit ForSaleByGrocer(_productID);\r\n    }\r\n\r\n    function customerBuysItem(uint256 _productID)\r\n        public\r\n        payable\r\n        customerExists \r\n        readyForSaleByGrocer(_productID)\r\n        checkValue(_productID, payable(_msgSender()))\r\n    {\r\n        items[_productID].customerID = _msgSender();\r\n        address payable ownerAddressPayable = _make_payable(\r\n            items[_productID].retailerID\r\n        );\r\n        ownerAddressPayable.transfer(items[_productID].productPrice);\r\n        items[_productID].ownerID = _msgSender();\r\n        items[_productID].customerID = _msgSender();\r\n        items[_productID].itemState = State.PurchasedByCustomer;\r\n        itemsHistory[_productID].RTC = block.number;\r\n        emit PurchasedByCustomer(_productID);\r\n    }\r\n\r\n    function fetchItemBuffer1(uint256 _productID)\r\n        public\r\n        view\r\n        returns (\r\n            uint256 itemstockUnit,\r\n            uint256 itemproductID,\r\n            address ownerID,\r\n            address farmerID,\r\n            string memory farmName,\r\n            string memory farmInformation,\r\n            uint256 productDate\r\n        )\r\n    {\r\n        Item memory item = items[_productID];\r\n\r\n        return (\r\n            item.stockUnit,\r\n            item.productID,\r\n            item.ownerID,\r\n            item.farmerID,\r\n            item.farmName,\r\n            item.farmInformation,\r\n            item.productDate\r\n        );\r\n    }\r\n\r\n    function fetchItemBuffer2(uint256 _productID)\r\n        public\r\n        view\r\n        returns (\r\n            uint256 itemstockUnit,\r\n            uint256 itemproductID,\r\n            uint256 productID,\r\n            string memory productNotes,\r\n            uint256 productPrice,\r\n            uint256 productDate,\r\n            State itemState,\r\n            address RetailerID,\r\n            address retailerID,\r\n            address consumerID\r\n        )\r\n    {\r\n        Item memory item = items[_productID];\r\n\r\n        return (\r\n            item.stockUnit,\r\n            item.productID,\r\n            item.productID,\r\n            item.productNotes,\r\n            item.productPrice,\r\n            item.productDate,\r\n            item.itemState,\r\n            item.grocerID,\r\n            item.retailerID,\r\n            item.customerID\r\n        );\r\n    }\r\n\r\n    function fetchitemHistory(uint256 _productID)\r\n        public\r\n        view\r\n        returns (\r\n            uint256 blockfarmerToRetailer,\r\n            uint256 blockRetailerToRetailer,\r\n            uint256 blockRetailerToConsumer\r\n        )\r\n    {\r\n        Txblocks memory txblock = itemsHistory[_productID];\r\n        return (txblock.FTD, txblock.DTR, txblock.RTC);\r\n    }\r\n}\r\n",
  "sourcePath": "/Users/yogeshvijayan/Downloads/ETH-FoodSupplyChain/contracts/supplyChainContract/SupplyChain.sol",
  "compiler": {
    "name": "solc",
    "version": "0.8.21+commit.d9974bed.Emscripten.clang"
  },
  "schemaVersion": "3.4.8",
  "updatedAt": "2023-08-22T07:42:41.227Z",
  "devdoc": {
    "kind": "dev",
    "methods": {},
    "version": 1
  },
  "userdoc": {
    "kind": "user",
    "methods": {},
    "version": 1
  }
}